:020000040800F2
:10000000D82B002075020008912500088F230008D6
:100010008D250008A71C0008473C000800000000D0
:10002000000000000000000000000000053400088F
:10003000AB1C000800000000892F000833360008C0
:100040008F0200088F0200088F0200088F0200084C
:100050008F0200088F0200088F0200088F0200083C
:100060008F0200088F0200088F0200088F0200082C
:100070008F0200088F0200088F0200088F0200081C
:100080008F0200088F0200088F0200088F0200080C
:100090008F0200088F0200088F0200088F020008FC
:1000A0008F0200088F0200088F0200088F020008EC
:1000B0008F020008953600088F0200088F020008A2
:1000C0008F0200088F0200088F0200088F020008CC
:1000D0008F020008493900088F0200089D39000886
:1000E0008F0200088F0200088F02000800F002F85B
:1000F00000F0B0F80AA090E8000C82448344AAF112
:100100000107DA4501D100F0A5F8AFF2090EBAE80F
:100110000F0013F0010F18BFFB1A43F0010318473B
:10012000A83F0000C83F00000A444FF0000C10F840
:10013000013B13F0070408BF10F8014B1D1108BF65
:1001400010F8015B641E05D010F8016B641E01F805
:10015000016BF9D113F0080F1EBF10F8014BAD1C55
:100160000C1B09D16D1E58BF01F801CBFAD505E073
:1001700014F8016B01F8016B6D1EF9D59142D6D3CD
:10018000704700000023002400250026103A28BFF5
:1001900078C1FBD8520728BF30C148BF0B607047F9
:1001A0006E2900F07F83702900F0DF84662903F058
:1001B0008586652903F08286672903F07F86612999
:1001C000AFF3008003681B0A28BF41F08001692952
:1001D00000F0D080642900F0CD80752900F0CA803D
:1001E0006F2900F06C84782900F0AB84E92900F0D5
:1001F0000784E42900F00484F52900F00184EF2944
:1002000000F06984F82900F0AA840368DB0928BF9C
:1002100041F08001632900F08883732900F08D8309
:10022000E32900F04F87F32900F05487002070473E
:100230001FB500F0E7FF04000020002103F012FECC
:10024000401C60600020002103F022FEE0601FBD22
:1002500010B510BD00F0B1FF1146FFF7E9FF03F044
:10026000BFFD01F093F803B4FFF7F2FF03BC01F008
:10027000D7F800000948804709480047FEE7FEE735
:10028000FEE7FEE7FEE7FEE7FEE7FEE7FEE7FEE746
:1002900004480549054A064B7047000035360008FA
:1002A000ED000008D81F0020D82B0020D823002004
:1002B000D82300207CB51D4616460C00009001D0C6
:1002C0002044401E074B7B442A4669460190304635
:1002D00000F001FB05461CB10020694600F00EFB52
:1002E00028467CBD3D0600000FB47CB50C0009AA71
:1002F000009001D02044401E084B7B446946019089
:10030000089800F0E8FA05461CB10020694600F0A4
:10031000F5FA28467CBC5DF814FB000009060000D5
:1003200070B50C460546012A05D02878800600D510
:10033000EA69002302E0012305E05B1C934202D23C
:10034000E05C0028F9D1A869E618C01AA861286AFB
:1003500018442862284600F013FA04E0D5E9012188
:1003600014F8010B9047B442F8D3284600F01EFA67
:1003700070BD00002DE9F041064600241068752983
:10038000314616A510D000F022FA002802DA4042C9
:1003900013A507E031688A0701D512A502E04907D5
:1003A00004D511A5012401E000F01AFA00210A2267
:1003B00006F1240709E0B0FBF2FCB0FBF2F302FB0C
:1003C0001C00303078541846491C0028F3D12346CD
:1003D0002A463046BDE8F04100F00BBA00000000AC
:1003E0002D0000002B000000200000002DE9F05F30
:1003F000894604464FF0000ADFF874B1FB44C0F8A8
:1004000020A02046E1688847002874D0252806D01F
:10041000D4E901219047206A401C2062F1E70026C0
:100420005F462046E16888472028054607DB312DD6
:1004300005D2781910F8200C08B10643F1E7B0078F
:1004400001D526F00406C4F81CA00027C4F818A0A3
:100450002A2D09D0284603F0BBFC38B304EB8708EB
:10046000303DC8F8185019E059F8041B204604EB39
:1004700087029161E1688847012F054618D1E0693C
:10048000002820DA26F020061DE0D8F8180000EB3E
:10049000800005EB40003038C8F818002046E168BD
:1004A0008847054603F094FC0028EED1012F0AD0BE
:1004B0002E2D08D12046E16888477F1C0546022F73
:1004C00046F02006C4DBA069002803DA404246F06B
:1004D0000106A061F00701D026F010066C2D0BD0AC
:1004E000682D09D04C2D39D06A2D35D0742D35D0DA
:1004F0007A2D33D016E038E0E1682F462046884751
:10050000B842054609D16C2F26D04FF48060E168CF
:10051000064320468847054604E06C2F1AD04FF466
:10052000807006430DB3A5F14100192802D820358B
:1005300046F400664A462946204626604E46FFF7A6
:100540002FFE80B101280BD0F61D26F0070000F128
:10055000080956E74020E4E78020D8E70020D6E7E6
:1005600006F104094DE7284652E7206ABDE8F09FEE
:10057000C83A000070B5064600F0FEF8046805466B
:1005800030460A22002100F0FBFA2C6070BD30B525
:1005900005460B462A4613F8014B12F8010B08B129
:1005A000A042F8D01CB1002802D06D1CF1E728460B
:1005B00030BD10B5431C02E010F8011B71B181077A
:1005C000FAD14FF0013202C88C1A8C4314EAC211DE
:1005D000F9D0C01A0A0603D0C01E10BDC01A10BD43
:1005E0000A0401D0801E10BD0902FCD0401E10BDBF
:1005F000032A40F2308010F0030C00F0158011F84F
:10060000013BBCF1020F624498BF11F801CB00F826
:10061000013B38BF11F8013BA2F1040298BF00F87A
:1006200001CB38BF00F8013B11F0030300F0258037
:10063000083AC0F0088051F8043B083A51F804CB5E
:10064000A0E80810F5E7121D5CBF51F8043B40F824
:10065000043BAFF30080D20724BF11F8013B11F82F
:1006600001CB48BF11F8012B24BF00F8013B00F873
:1006700001CB48BF00F8012B704710B5203AC0F0FD
:100680000B80B1E81850203AA0E81850B1E8185093
:10069000A0E81850BFF4F5AF5FEA027C24BFB1E8D0
:1006A0001850A0E8185044BF18C918C0BDE8104041
:1006B0005FEA827C24BF51F8043B40F8043B08BF4A
:1006C0007047D20728BF31F8023B48BF11F8012B11
:1006D00028BF20F8023B48BF00F8012B70474FF0BD
:1006E00000020429C0F0128010F0030C00F01B80FF
:1006F000CCF1040CBCF1020F18BF00F8012BA8BF0D
:1007000020F8022BA1EB0C0100F00DB85FEAC17CD0
:1007100024BF00F8012B00F8012B48BF00F8012B83
:1007200070474FF0000200B51346944696462039B4
:1007300022BFA0E80C50A0E80C50B1F12001BFF49A
:10074000F7AF090728BFA0E80C5048BF0CC05DF800
:1007500004EB890028BF40F8042B08BF704748BF4E
:1007600020F8022B11F0804F18BF00F8012B7047C2
:10077000704770477047000000487047741F0020A2
:1007800070B5044685690068C10601D5302600E0D1
:100790002026C00707D070BDD4E90121304690471C
:1007A000206A401C20626D1EF6D570BD70B50446EF
:1007B00085690078C00707D170BDD4E901212020E8
:1007C0009047206A401C20626D1EF6D570BD0968F6
:1007D0004A0501D540B27047C905FCD500B2704743
:1007E00009684A0501D5C0B27047C905FCD580B279
:1007F00070472DE9F0470D4699469246044600F1B0
:1008000024080168880604D5E06921F01001216000
:1008100000E00120A84201DD471B00E00027A1699C
:100820007A1902EB0900081AA0612078C00602D4E8
:100830002046FFF7A5FF002608E0D4E901211AF8B9
:1008400006009047206A401C761C20624E45F4DB6F
:100850002078C0060AD52046FFF792FF06E0D4E9CB
:10086000012130209047206A401C2062381EA7F1E9
:100870000107F4DC07E0D4E9012118F805009047EE
:10088000206A401C2062281EA5F10105F3DC2046E9
:10089000FFF78CFF2078000602D50220BDE8F08724
:1008A0000120FBE711680268006A530501D5087052
:1008B0000AE0D30501D5088006E0130603D5C21768
:1008C000C1E9000200E008600120704701694A1C8C
:1008D00002610878704700B58FB0CDE90131002181
:1008E000059105497944CDE9031011466846FFF7A3
:1008F0007DFD0FB000BD0000E5FFFFFF0A6802F8B4
:10090000010B0A607047D1E900239A4202D2531CBE
:100910000B601070704710B5436913B1AFF30080DE
:1009200001E0FFF7FDFC012010BD127800F1240169
:100930000A7000224A700122EDE711684FF0FF3281
:10094000E9E700002DE9FF5F15468A460446DFF817
:10095000AC80F8440027D8E900103E46CDE90010ED
:1009600010E03AF816106A4602A800F006FC411C96
:1009700007D02178890603D5E269391891420DD84C
:100980000744761C2078800602D5E069B84205DD70
:10099000AE42E6DB3AF816000028E2D1A069C01B9F
:1009A000A0612046FFF7ECFED8E90010CDE9001069
:1009B000002017E03AF818106A4602A800F0DDFBA4
:1009C000B0F1FF3F81460BD000250DF1080B05E08B
:1009D000D4E901211BF8050090476D1C4D45F7D364
:1009E00008F10100B0428046E4DB206A384420620E
:1009F0002046FFF7DBFEBDE8FF9F000086350000C4
:100A00002DE9F0418046D21D22F007020025D2E9EF
:100A10000002F52915A614D0011E72F1000106DAB4
:100A20000023D0EB030063EB020211A608E0D8F824
:100A300000108B0701D50FA602E0490701D50EA6CD
:100A400001251146002408F1240704E000F0DCF839
:100A500030323A55641C50EA0102F7D12B46324637
:100A600021464046BDE8F041FFF7C3BE000000004C
:100A70002D0000002B0000002000000030B40021F9
:100A800000F1240408E002F00705D208303542EAFC
:100A90004372DB086554491C52EA0305F3D104682C
:100AA000002310A2250707D5A40600D421B1C469EC
:100AB00001230DA2641EC46130BCFFF79ABE10B5BD
:100AC000044621461068FFF78BFE02462046BDE82B
:100AD00010400023D2E7D21D22F00701D1E9002304
:100AE000CCE700000000000030000000F0B40D462C
:100AF0000188090502D5214C7C4402E01F4C7C444E
:100B00000E34002100F1240608E002F00F0712095C
:100B1000E75D42EA03721B097754491C52EA030756
:100B2000F3D102780023120704D5702D06D009B145
:100B3000022311342246F0BCFFF75BBE01231034C0
:100B4000F8E770B504460D4621461068FFF748FEE9
:100B5000024629462046BDE870400023C6E7D21D64
:100B600022F00703D3E90023C0E70368126843F0CB
:100B7000200303600823C3610023B7E7E8330000C4
:100B80002DE9F04791460F4680460446002614F8AA
:100B9000015B2DB100F030F80068405DC007F6D170
:100BA0002B2D02D02D2D18D0641E4A4639462046E2
:100BB00000F094FA27B13968A14201D1C7F800804A
:100BC0004FF0020471050BD54042002803DDFFF70A
:100BD000D3FD0460A007BDE8F08746F48066E4E733
:100BE0000028F8DAFFF7C8FD04606FF00040F2E774
:100BF00000487047741F002010B500F003FB001D73
:100C000010BD00BF6132000030B5B0F10A024FEAFA
:100C1000900E71F100034EEA817EB0EB0E0061EBA5
:100C200091014FEA101E4EEA017E10EB0E0041EBDF
:100C300011114FEA102E4EEA016E10EB0E0041EB3F
:100C400011214FEA104E4EEA014E10EB0E0041EB1F
:100C50001141401841F100014FEAD00040EA4170D3
:100C60004FEAD10110EB80054FEA810444EA907409
:100C700044EB01046D1944EB0404521BA3414FF0F3
:100C8000000348BF0A3200D530BD401C41F10001CD
:100C900030BD70472DE9FF4F0C461E464FF0FF3721
:100CA0008BB0D2E90001DDF860800A908A46C1F37A
:100CB0000A5505B93D46002108464FF00000BAF13B
:100CC000000F00F4400005DA00EB80004FF4400113
:100CD00001EA50004FEA9059B9F1010F00DDB94621
:100CE0000A9850EA4A000ED044F61050A5F2FF359B
:100CF00045432F14B8F1000F1ED07542291E1EDD8A
:100D0000C9F100021CE0B8F1010F4FF0000001D062
:100D1000302103E0F24305E02154401CB042FBDBEC
:100D200030460022002121540B99C1F80880C1E906
:100D300000200FB0BDE8F08FBD1B6D1CDEE74A46FA
:100D400000DA694206A800F0AFFA06AB93E80700A4
:100D500003AB83E8070050460A9900F068FB8DE872
:100D60000700A0F500501F3800900398002D0ADD01
:100D700042F21F014A460844002303A90390684633
:100D800000F0D1FD09E0A0F500504A461F380023CD
:100D900003A90390684600F0DBFD8DE8070000041E
:100DA000000C03D04FF0FF30410800E01046B8F1CE
:100DB000000F03D00022009215461EE0751E05D4D8
:100DC000FFF722FF303262556D1EF9D5B34601227E
:100DD000084302D000227F1C04E02078302801D193
:100DE00000227F1E002A099784D01DE0112D07DA0A
:100DF000FFF70AFF303262556D1C50EA0102F5D14F
:100E0000084302D00098C8B10EE00021681E05E03A
:100E1000235C625C63542254401E491C8142F7DB10
:100E2000AB46A81B401E0990002004F80B000B984D
:100E3000099AC0F80880C0E9002B7AE711264FF024
:100E4000000857E72DE9F04F88460446D21D22F0EE
:100E5000070191B0D1E90001CDE90A0102F0A4FF38
:100E600002460B98C00F01D02D2007E020688107B3
:100E700001D52B2002E0202101EAC000032A0990BD
:100E800001D0072A05DB03464146204600F0BEF9A3
:100E90000BE12078800601D5E06900E00620B8F17A
:100EA000650F814606D0B8F1660F18D0B8F1670F0C
:100EB00070D131E00020B9F1110F009001DB112356
:100EC00001E009F101030AAA01A90CA8FFF7E2FE5B
:100ED000DDE90C70002609F10105834647E0012099
:100EE0004B4600904FF000470AAA01A90CA8FFF753
:100EF000D1FEDDE90DB00C995D46002610B909F16F
:100F000001000D18B9EB050003D4C0F1FF3609F15B
:100F10000105A5EB09002BE0B9F1010F01DA4FF053
:100F200001090020B9F1110F0090484601DD11239D
:100F300000E003460AAA01A90CA8FFF7ABFEDDE911
:100F40000C704D4600268346207800070AD4AB4536
:100F500000DA5D4601A8012D04DD411911F8011CDC
:100F6000302907D04F4502DA17F1040F04DA0120C7
:100F700082460FE06D1EEEE7002F02DCED1B3E44C3
:100F800003E0781CA84200DD7D1CB81B00F1010ABB
:100F90004FF000472078000703D4AA4501DB4FF04B
:100FA000FF3A0021B7F1004F0DF143088DF84310CF
:100FB00024D002202B23002F01DA7F422D230A2187
:100FC000021EA0F1010000DC5FB197FBF1FC97FB72
:100FD000F1F201FB1C7C17460CF1300C08F801CD36
:100FE000EEE7A8F1010003702188090501D545212C
:100FF00000E06521A0F1010800F8011C09980FA983
:10100000A1EB0807FF1D00B10120411901EBEA70B7
:10101000A1693844081A401EA0612078C00602D495
:101020002046FFF7ADFB099828B1D4E9012190478C
:10103000206A401C20622078C00622D52046FFF797
:101040009FFB1EE0002E04DBB34502DD01A8805D9E
:1010500000E03020D4E901219047206A401C206242
:10106000761CAAF101005FEA000A0AD100F0CAF872
:10107000C0680168405CD4E901219047206A401CA7
:101080002062281EA5F10105DCDC07E0D4E901217E
:1010900018F8010B9047206A401C2062381EA7F107
:1010A0000107F3DC2046FFF781FB032011B041E686
:1010B00010B5436913B1AFF3008001E0FFF742FCC4
:1010C000012010BD128800F1240182840022C28414
:1010D0000122EDE711684FF0FF32E9E72DE9F05FFB
:1010E000824615468B4600270AF10104B94600786E
:1010F000302801D09DB113E014F8010B01277828A6
:1011000003D0582801D045B10AE00DB1102D07D108
:10111000002714F8010B102502E0082500E00A253D
:101120000026B0460EE005FB080005FB06F101278E
:101130001FFA80F801EB1046B6F5803F00D3B946A0
:1011400014F8010B294600F0A1F80028EBDABBF1F6
:10115000000F05D00FB1641E00E05446CBF80040EC
:10116000B9F1000F06D0FFF707FB02210160C81E8E
:10117000BDE8F09F48EA0640FAE770B516460C460F
:101180000546FFF739FD036893F80101012806D0F1
:10119000FF2C0FD8185D68B101202C7070BDD3F8FA
:1011A00007013246214603F2071303442846BDE8EF
:1011B000704018474FF0FF3070BD7546FFF718FDBF
:1011C000AE4605006946534620F00700854618B034
:1011D00020B5FFF75DF8BDE820404FF000064FF066
:1011E00000074FF000084FF0000B21F00701AC465C
:1011F000ACE8C009ACE8C009ACE8C009ACE8C0097B
:101200008D46704700487047941F00202DE9F0413B
:101210001F46044603260168072A01F4006004DB28
:1012200008B116A505E016A503E008B115A500E074
:1012300015A521F010002060A069C01EA0610FB1AB
:10124000401EA0612046FFF79BFA4FB1D4E901216F
:1012500038469047206A401C2062C01C206206E08D
:10126000206AFAE7D4E9012115F8010B9047761EB0
:10127000F8D22046FFF79AFABDE8F0814E414E00C1
:101280006E616E00494E4600696E66003A2800D2D3
:10129000303820F02002412A01D3A2F137008842E1
:1012A00001D34FF0FF3070472DE9F04781461646D5
:1012B0008AB0354878440DC88DE80D00324878442E
:1012C000801C03AC0DC884E80D0041F69B30084437
:1012D000372190FBF1F290FBF1F5A5F1800501FBC0
:1012E00012041B3C02D56442012000E00020DFF81C
:1012F00098A080460027FA44AAF1BE0A0EE0E00753
:101300000AD03246684607EB470101230AEB810108
:1013100000F01EFB8DE8070064107F1C002CEED14E
:10132000194F7F44AE3F19E0E80715D007EB0410D2
:101330000DF1180A90E80E008AE80E00C068F0422D
:1013400001D1981908903246012306A903A800F09C
:10135000FFFA03AB83E807006D10641C002DE3D196
:101360004FF0010332466946B8F1000F03A802D0DE
:1013700000F0D9FA01E000F0EBFAC9E90001C9F880
:1013800008200AB0BDE8F087D02C000010B5044654
:10139000AFF300802046BDE81040FEF764BF0000B8
:1013A0004FF0013C50F8042B51F8043B9A4221D1F4
:1013B000A2EB0C03934313EACC1317D150F8042B80
:1013C00051F8043B9A4215D1A2EB0C03934313EA64
:1013D000CC130BD150F8042B51F8043B9A4209D19D
:1013E000A2EB0C03934313EACC13DBD04FF00000C5
:1013F000704700BFD01A01BAB1FA81F101F01801AB
:1014000022FA01F0CB40C1F12001DBB2C0B2C01A18
:101410002CFA01F3D11A914311EAC311E6D17047B6
:1014200001491820ABBEFEE72600020070475FEAC4
:10143000400C08BF91F0000F4FEA8C234FEAC12205
:1014400043EA51514FEA1C5018BF00F5F0404FEAF3
:10145000300018BF41F000415FEA6C5C00F0298069
:10146000BCF1FF3F08BF40F080407047130C06BF3F
:1014700012044FF0100C4FF0000C130E04BF1202B8
:101480000CF1080C130F04BF12010CF1040C930FA4
:1014900004BF92000CF1020CD30F04BF52000CF1F8
:1014A000010C11464FF00002A0F11F00A0EB0C0050
:1014B000704711F0004F08BF704731F000413FF412
:1014C000D5AF0B0C06BF09044FF0100C4FF0000C09
:1014D0000B0E04BF09020CF1080C0B0F04BF09012D
:1014E0000CF1040C8B0F04BF89000CF1020CCB0F24
:1014F00004BF49000CF1010CCCF12003A0EB0C005F
:1015000022FA03F302FA0CF241EA030100F10100AE
:10151000704720F07F4C80EA030023F07F47ACEB5C
:10152000070303F57C5300F0004003F1FF032DE9AE
:1015300080494FEA154B09B44FEA144325EA0B4E94
:1015400024EA03480FF2042606EB132749083E78E5
:101550005FEA320203FB0667C7F5000707FB06F6E2
:101560004FEA54374FEAD64606F1020607FB066CEF
:10157000CCF1005C4FEA1C472CEA074C07FB06F451
:101580000CFB06F504EB15464FEA961634BF002017
:101590004FF000404FEAD13706FB07FC4FEA1C4CE6
:1015A0000CFB0BF7D21B03FB0CF761EB07010CFBE9
:1015B0000EF7B0EB074072EB17420CFB08F734BF95
:1015C000A2EB0742B2EB074261EB17414FEA0C4432
:1015D0004FEA910706FB07FC4FEA1C4C0CFB0BF78C
:1015E000B0EBC74072EB573203FB0CF734BFA2EBF2
:1015F000C742B2EBC74261EB57310CFB0EF7B0EBC1
:10160000C70072EB57720CFB08F734BFA2EBC7029E
:10161000B2EBC70261EB5771039F4FEA816141EA68
:10162000921104EBCC044FEAD1374FEA826206FBF9
:1016300007FC42EA90124FEA80604FEA1C4C0CFB18
:101640000BF7D21B03FB0CF761EB07010CFB0EF74A
:10165000B0EB074072EB17420CFB08F734BFA2EB6C
:101660000742B2EB074261EB17414FEA8C554FEA54
:10167000910704EB9C2406FB07FC4FEA1C4C0CFB77
:101680000BF7B0EBC74072EB573203FB0CF734BFDC
:10169000A2EBC742B2EBC74261EB57310CFB0EF72E
:1016A000B0EBC70072EB57720CFB08F734BFA2EB2C
:1016B000C702B2EBC70261EB577115EB4C254FEA3D
:1016C000816141EA92114FEA82624FEAD13742EAE0
:1016D000901206FB07FC44F100044FEA80604FEAD9
:1016E0001C4C0CFB0BF7D21B03FB0CF761EB070147
:1016F0000CFB0EF7B0EB074072EB17420CFB08F740
:1017000034BFA2EB0742B2EB074261EB174115EB86
:101710001C154FEA813141EA92414FEA823242EA96
:1017200090424FEA80304FEA0C7644F1000448EAD8
:1017300003434EEA0B484FF0000EB2EB080C71EB7E
:10174000030724BF624639464EEB0E0E4FF0000BE6
:101750000018524149414BEB0B0BB2EB080C71EBFB
:1017600003077BF1000B24BF624639464EEB0E0E99
:101770004FF0000B0018524149414BEB0B0BB2EB01
:10178000080C71EB03077BF1000B24BF624639465E
:101790004EEB0E0E51EA020718BF46F0010616EB9B
:1017A0000E7655F1000254F1000103D5BDE8890120
:1017B000BDE80088BDE88901BDE80048B61952417E
:1017C00041EB0101A3F10103704780807F7E7D7CA6
:1017D0007B7A7978777676757473727171706F6EC3
:1017E0006E6D6C6C6B6A6A6968686766666564646E
:1017F000636362616160605F5F5E5E5D5D5C5C5BF8
:101800005B5A5A5959585857575656555555545466
:10181000535352525251515050504F4F4F4E4E4DC4
:101820004D4D4C4C4C4B4B4B4A4A4A494949484810
:101830004847474747464646454545444444444350
:1018400043434342424242414141002B9C4630D4F3
:1018500077002BD01CB54FEA370703B44FF01000C8
:101860004FF01001BAF1000F06D0BCF1000FDCBF41
:1018700040F0080040F008014FF000000FBCBDE848
:1018800010400BF1010BBBF1010F08BF5FEA170716
:1018900022BF12F1010211F101014FF0004143F1A9
:1018A000000300F0004043EA00007047F9D35708F6
:1018B000D0E746EA064613F1400F4FEA16461FDD11
:1018C00013F1200FDFBF16430A46002120335B428D
:1018D000BED0C3F1200746EA064602FA07F74FEAF0
:1018E000164646EA0706C3F1200722FA03F201FA78
:1018F00007F721FA03F14FF0000342EA0702A7E7D6
:1019000046EA020646EA06464FEA164646EA010657
:10191000BCBF46EA0646360C4FF000034FF000020B
:101920004FF0000194E72DE9804C9A46934670B43D
:1019300091E8380007C831EA400C48BF34EA430C4C
:1019400003D5FFF7E6FDFFF780FFF0BCBDE8008C94
:101950002DE9804C9A46934670B491E8380007C848
:1019600010F0804F08BF13F0804F03D100F005F84E
:10197000FFF76BFFF0BCBDE8008C20F07F4780EAEA
:10198000030023F07F4C07EB0C03A3F57C5300F01E
:101990000040A3F1FE0392F0000F00F0B38095F039
:1019A000000F00F077802DE901494FEA11404FEA1E
:1019B000144621EA004800FB06FC24EA064708FB1F
:1019C00006F607FB08F800FB07F718EB06484CEB98
:1019D000164C4FEA124B18EB07484FEA15464CEBF2
:1019E000174022EA0B4E0BFB06FC25EA06470EFBCE
:1019F00006F607FB0EFE0BFB07F71EEB064E4CEB45
:101A0000164C4FF000061EEB074E4CEB174B18EB35
:101A10000B0840F1000018EB0E0B58EB000840F1EA
:101A200000008F1A4FF000013CBFC943661B14BF72
:101A3000B5EB040C00213CBFC943F61B4FEA174429
:101A40004EEA8E0E27EA04454FEA1C4704FB076264
:101A50002CEA074C05FB07F70CFB05F604FB0CFC16
:101A600016EB074642EB174216EB0C4642EB1C42C4
:101A70001BEB060658EB0202414146EA9E0601D5E1
:101A8000BDE80189B619524141EB0101A3F10103FF
:101A9000BDE801894FEA14454FEA114724EA05469B
:101AA00021EA074C05FB07F406FB07F70CFB06F1E0
:101AB00005FB0CFC11EB074144EB17444FEA1247BE
:101AC00011EB0C4144EB1C4422EA074C05FB07F2E6
:101AD00006FB07F70CFB06F605FB0CFC16EB0746AE
:101AE00042EB174216EB0C4642EB1C456A1854F1C8
:101AF000000148BF7047B619524141EB0101A3F103
:101B00000103704795F0000F37D04FEA11424FEABA
:101B1000144721EA024624EA074C02FB07F106FBC0
:101B200007F70CFB06F402FB0CFC14EB074441EB3B
:101B300017414FEA154714EB0C4441EB1C4125EAD1
:101B4000074C02FB07F506FB07F70CFB06F602FB4A
:101B50000CFC16EB074645EB174516EB0C4645EB20
:101B60001C42121951F1000148BF7047B619524189
:101B700041EB0101A3F1010370474FEA14454FEA1D
:101B8000114724EA054621EA074C05FB07F106FB4D
:101B900007F70CFB06F24FF0000605FB0CFC12EBFE
:101BA000074241EB174112EB0C4251EB1C4148BF7D
:101BB0007047921841EB0101A3F10103704710B582
:101BC0000346187800F0020068BB61B35C88601CB3
:101BD00058800A555888DC88A04201DB00205880D4
:101BE000187800F0010020B1187820F0010018707A
:101BF00017E0187800F0040010B15888988010E0C1
:101C000058889C88A0420CD1187800F0800020B140
:101C1000187840F00200187003E0187840F00400D3
:101C20001870002010BD4FF0FF30FBE710B50346E1
:101C3000187800F0020090BB5C78581D01555C7864
:101C40001F3040F824205878401C58705878DC78B1
:101C5000A04201DB00205870187800F0010020B18C
:101C6000187820F00100187017E0187800F00400D0
:101C700010B15878987010E058789C78A0420CD138
:101C8000187800F0800020B1187840F00200187039
:101C900003E0187840F004001870002010BDFFE742
:101CA0004FF0FF30FAE700BFFEE7704701460878C3
:101CB00000F00100B0B98878401C887000200871DD
:101CC0008878CA78904201DB0020887088784A784A
:101CD000904207D1087800F0020018B9087840F067
:101CE00001000870087820F002000870087820F0E1
:101CF000040008700020704710B50449012000F06E
:101D000011F90349002000F0FBF810BD752A000806
:101D1000FD29000810B500F057F838B10C480078DC
:101D200020B100200A49087000F030F8002000F0CF
:101D30003BF858B107480088012807D10020054921
:101D40000880054B062205A100F0AEF810BD00008A
:101D500004000020020000203D2A0008544553548E
:101D60000D0D000070B50546002400221421064820
:101D7000FFF75CFF04442A4615210348FFF756FF8E
:101D80000444204670BD0000081C002070B50446C5
:101D90000025224616210348FFF748FF0544284640
:101DA00070BD0000081C00200146042901DD002050
:101DB000704701EB410000EB0112024810F82200CD
:101DC000F6E70000741D0020014890F828017047D4
:101DD000D41A002010B500F0D1F840F21C41074899
:101DE000FEF79FFC0320054981F82601002081F8B9
:101DF00028011E21024800F0E3FA10BDD41A002089
:101E0000081C002070B504460D46264606B105B9EB
:101E100070BD33462A4613A1002001F0D5FE1A48B2
:101E200090F8290160B11848406928B11648294640
:101E300042693046904703E02946304600F022FFD1
:101E40002946204601F0CCF82946204601F054F9F5
:101E50002946204600F04AFB2946204600F0C0FAF9
:101E600000BFD5E745535020557361727420526509
:101E7000637620446174615B25645D3A0D0A2573C5
:101E80000D0A0D0A00000000D41A002010B5054804
:101E900001F07CF8034890F8290110B9014801F0DD
:101EA000B3FA10BDD41A00202DE9F041054688464A
:101EB00016461F460024104890F8300100B900254E
:101EC0000D4880F82751324641465C30FEF790FBC2
:101ED0000948A0F8246100220C2100F59A70FFF750
:101EE000A5FE04443A460D210448FFF79FFE044432
:101EF0002046BDE8F0810000D41A0020081C002014
:101F00000246052A09DA02EB420000EB02130448FC
:101F100000EB83008164002070474FF0FF30FBE747
:101F2000741D002070B505460E460024104880F848
:101F3000265100210F4880F8B210002204210E48DB
:101F4000FFF774FE0444002201210B48FFF76EFEE8
:101F50000444002211460848FFF768FE0444324654
:101F600003210548FFF762FE0444204670BD0000CF
:101F7000D41A00201C000020081C002008B50121F4
:101F8000042001F047F94FF48070ADF800001020F4
:101F90008DF8030003208DF802006946044800F024
:101FA00069F94FF48071024800F0EFF908BD0000B4
:101FB0000008014010B540F2CF21632001F018FC69
:101FC00084210248FEF7ADFB10BD0000F01E00208A
:101FD00002460F4800880A2817DA0D48008800EBEF
:101FE00040030B48001D00EB830081600848008817
:101FF00000EB40030648001D40F82320001F008826
:10200000401C034B1880002070474FF0FF30FBE767
:10201000F01E002010B54FF4E13001F017FE4FF430
:10202000E13001F063FE41F228010548FEF779FB3B
:102030004FF400620349044800F0ABF910BD000002
:10204000AC0A0020A8020020C012002000202FE0CF
:1020500000EB800101EB4021174A02EB810191F86E
:102060000C1821B300EB800101EB402102EB810150
:1020700091F80C18491E00EB800202EB40220E4B37
:1020800003EB820282F80C1800EB800101EB402187
:102090001A4602EB810191F80C1841B9012100EBBD
:1020A000800202EB402203EB820282F80D18401CF2
:1020B0000228CDDB70470000AC0A002070B5ADF6F9
:1020C000080D40F6040101A8FEF72BFB002450E0A8
:1020D00004EB840000EB4420284901EB800090F8D9
:1020E0000D08E8B3002004EB840101EB4421234AEE
:1020F00002EB810181F80D0804EB840202EB44221B
:102100001E4B03EB8202D2F8001804EB840202EBB0
:10211000442203EB820202F6040001AA01F0F4F863
:1021200086B2002E24DD002101AA701C1154002566
:102130001CE004EB840000EB4420104901EB80001C
:1021400000F5016050F8250070B104EB840000EB4D
:10215000442001EB800000F5016050F8252000E0EC
:1021600006E0314601A89047681C85B2012DE0DBEE
:10217000641C022CACDB0DF6080D70BDAC0A00200F
:1021800010B502460B46022A1CDA002118E002EBC9
:10219000820000EB42200D4C04EB800000F5016052
:1021A00050F8210058B902EB820000EB422004EB0A
:1021B000800000F5016040F82130002010BD491C6E
:1021C0000129E4DB4FF0FF30F8E70000AC0A002003
:1021D0002DE9F047064688461746C1464FF6FF757B
:1021E000022E03DB4FF0FF30BDE8F087E6B9402157
:1021F0001E4801F0FDFB002411E04FF6FF7519F8B1
:1022000004001A49091D088000BF1848008800F022
:10221000400018B9281EA5F10105F6D1641CBC4286
:102220001ED2002DE9D11BE04021114801F0E0FB56
:10223000002411E04FF6FF7519F804000C49091D40
:10224000088000BF0A48008800F0400018B9281E26
:10225000A5F10105F6D1641CBC4201D2002DE9D1E3
:1022600015B94FF0FF30BFE70020BDE7003801404F
:10227000004800402DE9F0410246002500260020DC
:1022800000230024002791F803C00CF00F0591F8FB
:1022900003C00CF0100CBCF1000F03D091F802C089
:1022A0004CEA050591F800C0BCF1000F31D014686C
:1022B00000202BE04FF0010C0CFA00F3B1F800C045
:1022C0000CEA03069E4220D183004FF00F0C0CFA5B
:1022D00003F7BC4305FA03FC4CEA040491F803C07D
:1022E000BCF1280F06D14FF0010C0CFA00FCC2F82B
:1022F00014C00AE091F803C0BCF1480F05D14FF0BB
:10230000010C0CFA00FCC2F810C0401C0828D1D304
:102310001460B1F800C0BCF1FF0F34DD5468002038
:102320002EE000F1080C4FF0010808FA0CF3B1F8A8
:1023300000C00CEA03069E4221D183004FF00F0C2F
:102340000CFA03F7BC4305FA03FC4CEA040491F8C9
:1023500003C0BCF1280F05D100F1080C08FA0CF8F5
:10236000C2F8148091F803C0BCF1480F07D100F106
:10237000080C4FF0010808FA0CF8C2F81080401C55
:102380000828CED35460BDE8F0810161704700BFDA
:10239000FEE770B504460D461646002140F60600DD
:1023A0000153801C0153801C0653012084F804084B
:1023B000C4F8005831462846FEF791F9002070BD58
:1023C00070B504460D4600206070A0702071E57065
:1023D000012020701E21601DFEF781F9002070BDD4
:1023E0002DE9F04106460F4635462CA12846FEF75A
:1023F000CEF8051E28D015F8010C202824D015F899
:10240000010C532820D0284890F8300120B1A81E94
:10241000FEF7B0F8C4B200E00024052C14DA04EB97
:10242000440000EB0411214810F8210060B9224655
:102430001FA1002001F0C8FB012104EB440000EBC8
:1024400004121A4800F822101FA13046FEF79FF828
:10245000051E21D0144890F8300120B1A81EFEF7C7
:1024600089F8C4B200E00024052C15DA04EB44001E
:1024700000EB04110D4810F8210001280CD1224670
:1024800014A1002001F0A0FB002104EB440000EBAC
:102490000412064800F82210BDE8F081434F4E4E6A
:1024A0004543540D0A000000D41A0020741D00207A
:1024B0005443503A204944205B25645D20434F4EED
:1024C0004E4543540D0A0000434C4F5345440D0AFA
:1024D000000000005443503A204944205B25645DCD
:1024E00020434C4F5345440D0A00000070B504468C
:1024F0000D46144890F82601012804D0114890F8A0
:10250000260103281DD10F4890F8280160B10EA1C3
:102510002046FEF73CF8A0B100200A4981F82801C6
:102520000DA101F051FB0CE010A12046FEF72FF8A1
:1025300038B10120034981F828010FA1002001F0E2
:1025400043FB70BDD41A00205749464920444953E3
:10255000434F4E4E45435400776966692064697362
:10256000636F6E6E65637465640D0A005749464972
:1025700020474F54204950007769666920636F6E89
:102580006E65637465640D0A0000000000BFFEE71D
:102590007047000070B5002100230F22C47804B3F7
:1025A000154C246804F4E064C4F5E064210AC1F128
:1025B0000403CA40447804FA03F1847814402143A8
:1025C00009010E4C0678A155047804F01F0501247A
:1025D000AC4005786D11AD0005F1E025C5F800416E
:1025E00009E0047804F01F050124AC40044D06788E
:1025F000761145F8264070BD0CED00E000E400E0E7
:1026000080E100E070B504460D4616463CB906A1CF
:10261000002001F0D9FA01200D49087003E00DA156
:10262000002001F0D1FA70BD20456E746572204122
:1026300069726B69737320436F6E666967205769AF
:10264000666920535543434553530D0A000000006B
:102650000400002020456E746572204169726B6928
:10266000737320436F6E66696720576966692046F9
:1026700061696C0D0A000000F0B587B0064634466B
:1026800094F82751294903C9CDE9050105EB450017
:1026900000EB051104F5287000EB8100407808B1CB
:1026A000012000E00020074694F83001C8B94FF43B
:1026B0003970005905EB450101EB051204F528714D
:1026C00001EB8201891C05AA52F82720CDE90021DF
:1026D000029017A2402104F11C002368FDF704FEBC
:1026E0001FE005EB450000EB051104F5287000EB39
:1026F0008100406C05EB450101EB051204F52871E2
:1027000001EB8201891C05AA52F82720CDE900526D
:10271000CDE902100AA2402104F11C002368FDF754
:10272000E3FD04F11C00206007B0F0BDC03E0008CE
:1027300025733D222573222C222573222C2564002B
:1027400025733D25642C222573222C222573222CEF
:102750002564000038B505462C46A07A38B10BA296
:10276000402104F11C002368FDF7BEFD09E094F848
:102770002601009006A2402104F11C002368FDF709
:10278000B3FD04F11C00206038BD000025733F003C
:1027900025733D256400000038B50446254695F8AC
:1027A0002701009005A2402105F11C002B68FDF7D0
:1027B0009BFD05F11C00286038BD000025733D25F8
:1027C0006400000038B505462C4694F8980258B1CC
:1027D0004FF42770005900900BA2402104F11C0017
:1027E0002368FDF781FD0AE04FF42770005900903F
:1027F00007A2402104F11C002368FDF775FD04F1D8
:102800001C00206038BD000025733D312C2564007C
:1028100025733D302C2564007CB505462C46A07AF6
:1028200048B10EA060600EA2402104F11C00236894
:10283000FDF75AFD0EE00BA0606004F5F87004F59A
:10284000E871CDE900100BA2402104F11C002368BF
:10285000FDF74AFD04F11C0020607CBD4F4B0000D9
:1028600025733F005749464920434F4E4E45435438
:102870004544000025733D222573222C2225732216
:10288000000000007FB505462C46A07A38B10FA2A3
:10289000402104F11C002368FDF726FD12E094F8A6
:1028A000941294F8932204F2532004F23323CDE9D6
:1028B0000030CDE9022106A2402104F11C0023686A
:1028C000FDF712FD04F11C0020607FBD25733F0061
:1028D00025733D222573222C222573222C25642C5E
:1028E0002564000038B50446254640F29A20405B36
:1028F000009005A2402105F11C002B68FDF7F4FCB7
:1029000005F11C00286038BD25733D2564000000DA
:1029100070B505462C4694F82A0138B109A2402129
:1029200004F11C002368FDF7DFFC06E007A240214C
:1029300004F11C002368FDF7D7FC04F11C002060A3
:1029400070BD000025733D310000000025733D304F
:102950000000000070B505462C4694F8300138B1EF
:1029600009A2402104F11C002368FDF7BDFC06E02C
:1029700007A2402104F11C002368FDF7B5FC04F117
:102980001C00206070BD000025733D310000000078
:1029900025733D3000000000014601F15C020A6031
:1029A000704700007CB505462C4694F8300168B1AC
:1029B000B4F8240194F82711CDE900100AA24021AF
:1029C00004F11C002368FDF78FFC09E0B4F8240132
:1029D000009008A2402104F11C002368FDF784FC4C
:1029E00004F11C0020607CBD25733D25642C25640A
:1029F0000000000025733D256400000070B504460A
:102A00000D4616462B46224603A1002001F0DCF8B5
:102A100001200949088070BD5443502052656376F7
:102A2000204461746120537563636573735B25642F
:102A30005D2025730D0A00000200002070B50446D9
:102A40000D46164634B904A1002001F0BDF801205E
:102A50000749088070BD00005443502053656E64E0
:102A6000204461746120537563636573730D0A00BC
:102A70000200002070B504460D461646224608A105
:102A8000002001F0A1F84CB90BA1002001F09CF846
:102A90000020FFF77BF90D48FFF764F970BD0000D7
:102AA0004F6E536574576F726B4D6F646541636B06
:102AB0002025640D0A000000536574204D6F646585
:102AC00020537563636573730D0A000005260008C3
:102AD00070B505460E46174800F071FC044600200C
:102AE000154981F8290115A12846FDF750FD40B18F
:102AF0001CB1002211460320A0470E48FFF7D6F86C
:102B000070BD0D48406858B10B4841682846FDF734
:102B10003EFD68B1084801682846FDF738FD38B920
:102B20001CB1324629460020A0470248FFF7BEF8F4
:102B300000BFE5E7081C0020D41A002062757379F5
:102B400020732E2E2E00000070B505460E4611484B
:102B500000F035FC044600200F4981F829010846A1
:102B6000406820B91CB1324629460020A0470A48D7
:102B700041682846FDF70BFD58B131462846FFF75E
:102B80002FFC1CB1324629460020A0470148FFF720
:102B90008DF870BD081C0020D41A002070B50546C1
:102BA0000E46164800F00BFC04460020144981F83C
:102BB000290114A12846FDF7EAFC40B11CB100220E
:102BC00011460320A0470D48FFF770F870BD0C4870
:102BD000406828B10A4841682846FDF7D8FC58B13A
:102BE0000120074981F831011CB1324629460020F5
:102BF000A0470248FFF75AF800BFE7E7081C00208B
:102C0000D41A00206275737920732E2E2E000000D6
:102C100070B505460E46164800F0D1FB044600206C
:102C2000144981F8290114A12846FDF7B0FC40B1F0
:102C30001CB1002211460320A0470D48FFF736F8CB
:102C400070BD0C48406828B10A4841682846FDF725
:102C50009EFC50B10020074981F8310114B1324681
:102C60002946A0470248FFF721F800BFE8E7000027
:102C7000081C0020D41A00206275737920732E2E50
:102C80002E00000070B505460E46144800F097FB74
:102C900004460020124981F8290112A12846FDF7B7
:102CA00076FC40B11CB1002211460320A0470B481E
:102CB000FEF7FCFF70BD0A48406828B1084841682B
:102CC0002846FDF764FC38B11CB132462946002085
:102CD000A0470248FEF7EAFF00BFEBE7081C002010
:102CE000D41A00206275737920732E2E2E000000F6
:102CF00070B505460E46164800F061FB04460020FC
:102D0000144981F8290114A12846FDF740FC40B17F
:102D10001CB1002211460320A0470D48FEF7C6FF54
:102D200070BD0C48406828B10A4841682846FDF744
:102D30002EFC58B10BA12846FDF729FC1CB13246E8
:102D400029460020A0470248FEF7B0FF00BFE7E792
:102D5000081C0020D41A00206275737920732E2E6F
:102D60002E00000043495053544154555300000075
:102D700070B505460E46234800F021FB04460020AE
:102D8000214981F829010846406818B14868FDF7D3
:102D900010FC20B91CB1324629460020A0471BA1D7
:102DA0002846FDF7F4FB40B11CB100221146032078
:102DB000A0471448FEF77AFF70BD134841682846C3
:102DC000FDF7E5FB40B11CB1324629460020A04783
:102DD0000C48FEF76BFF12E00FA12846FDF7D7FB6A
:102DE00068B11CB1002211460120A0470548FEF73A
:102DF0005DFF054890F83201034981F8300100BFBA
:102E0000DAE70000081C0020D41A002062757379EC
:102E100020732E2E2E0000004C696E6B20697320EB
:102E20006275696C6465640070B505460E46254898
:102E300000F0C5FA04460020234981F8290108461C
:102E4000406820B91CB1324629460020A0471FA186
:102E50002846FDF79CFB40B11CB10022114603201F
:102E6000A0471848FEF722FF70BD17484168284662
:102E7000FDF78DFB40B11CB1324629460020A0472A
:102E80001048FEF713FF1BE013A12846FDF77FFB58
:102E9000B0B10D4890F8272114A1002000F094FE55
:102EA0001CB1002211460120A0470021064890F8DD
:102EB000270100EB400202EB0012144800F8221038
:102EC00000BFD1E7081C0020D41A00206275737976
:102ED00020732E2E2E0000006C696E6B206973200B
:102EE0006E6F742076616C6964000000544350205A
:102EF000446174612053656E64204661696C3A20B8
:102F0000256420436C6F7365640D0A00741D0020F6
:102F100070B505460E46174800F051FA04460020E9
:102F2000154981F829010846406820B91CB132468C
:102F300029460020A04711A12846FDF728FB48B1EB
:102F40001CB1002211460320A04701200A4981F844
:102F5000290170BD084841682846FDF718FB38B1C3
:102F60001CB1324629460020A0470248FEF79EFECB
:102F700000BFEEE7081C0020D41A002062757379A8
:102F800020732E2E2E0000007047000070B50446FE
:102F900094F8290108B3D4F82C010A30C4F82C01A4
:102FA000E168D4F82C01884217D9002084F829015F
:102FB000607A217A884210DD084800F000FA051E88
:102FC00003D0002211460220A847A06910B1A069D1
:102FD000804702E00148FEF769FE70BD081C002032
:102FE0002DE9F843074688463D46304890F82A01C7
:102FF000C0B12E4890F8A002002855D046462B4676
:1030000032462BA1002000F0DFFD2848D0F8E8026E
:10301000002849D0254832462946D0F8E832002019
:10302000984741E028A12846FDF7B1FA051E3BD09C
:103030006D1D1E4890F8300128B12846FDF79AFA18
:10304000C4B2AD1C00E00024052C2DDA012104EBF4
:10305000440000EB04121E4800F822102846FDF739
:1030600089FA86B21BA12846FDF791FA05466D1C28
:103070003346224618A10020009500F0A5FD04EB80
:10308000440000EB0411124800EB8100806C58B141
:1030900004EB440000EB04110D4800EB81003246C4
:1030A0002946836C20469847BDE8F883D41A00204F
:1030B0005443503A20444154415B25645D3A0D0A23
:1030C00025730D0A0D0A00002B4950442C00000006
:1030D000741D00203A0000005443503A2049445BDC
:1030E00025645D2E444154415B25645D3A0D0A25FB
:1030F000730D0A0D0A0000002DE9F04106460F4647
:1031000034461D4890F83101002832D01BA12046DA
:10311000FDF73DFA041E2CD015341DA12046FDF705
:1031200036FA041E0BD01CA12046FDF730FA051E0E
:1031300005D0641D2A1B21461848FDF759FA18A12D
:103140002046FDF724FA041E0CD013A12046FDF7FB
:103150001EFA051E06D009342A1B21460F482030CE
:10316000FDF746FA0D4B20330C4A10A1002000F069
:103170002BFDBDE8F0810000D41A0020536D617270
:103180007420676574207769666920696E666F00D0
:10319000737369643A0000000D0A0000A41C00204B
:1031A00070617373776F72643A000000436F6E66EC
:1031B000696720576966693A0D0A737369643A2032
:1031C00025730D0A70617373776F72643A202573EB
:1031D0000D0A000029B1064AD2690243044BDA61A4
:1031E00004E0034AD2698243014BDA617047000070
:1031F0000010024029B1064A12690243044B1A61C9
:1032000004E0034A12698243014B1A6170470000CF
:103210000010024029B1064A92690243044B9A61A8
:1032200004E0034A92698243014B9A6170470000AF
:103230000010024030B500210022002400232D4D53
:103240006D6805F00C0121B1042905D0082923D1AE
:1032500005E0294D056022E0274D05601FE0254D62
:103260006D6805F47012234D6D6805F480340225F5
:1032700005EB92421CB9214D554305600BE01D4DF5
:103280006D6805F400351DB11C4D5543056002E025
:10329000194D5543056002E0174D056000BF00BFA2
:1032A000144D6D6805F0F0010909154D6B5C05685A
:1032B000DD4045600F4D6D6805F4E061090A104D71
:1032C0006B5C4568DD4085600A4D6D6805F46051B2
:1032D000C90A0B4D6B5C4568DD40C560054D6D68E6
:1032E00005F44041890B074D6B5CC568B5FBF3F5F0
:1032F000056130BD0010024000127A0000093D0057
:1033000005000020150000202DE9F04104460D467F
:1033100017460026207800F0010058BB55B360889E
:10332000A18888420ADD6088A188401A86B2A088F8
:10333000411932463846FDF75BF915E0E088A1886F
:10334000401A401C86B2A088401E411932463846B9
:10335000FDF74EF961884A1EB8192946FDF748F96C
:103360006088401E304486B26088A080207840F09B
:1033700001002070207820F002002070207820F0DA
:10338000040020703046BDE8F0810246FF2008703E
:10339000107800F0010078B9107938B90120107167
:1033A0009378501DC05C0870012070479378501DC1
:1033B000C05C08700020F8E74FF0FF30F5E70146E9
:1033C000087800F0010028B98A7801F1240050F84B
:1033D000220070470020FCE770B504460D466421CA
:1033E000204600F01FF92A4604F60400D4F800181D
:1033F000FEF7E5FB28B1002000F017F9012084F862
:103400000D0870BD70470000F8B50446694637489E
:10341000FFF7BBFF0646002E5BDB9DF90000401C5A
:10342000002856D0002E0ADD9DF90000C0EBC00038
:103430002F4A02EB80011C222046FDF71EF9607A1C
:10344000217A88420BDD2948FFF7B9FF051E03D01A
:10345000002211460120A8472448FEF727FC607A85
:1034600020B9206910B12046216988472068FDF7FE
:10347000A0F8002824D02068FDF79BF807463A46BC
:1034800001202168FEF7A4FE02221AA10120FEF706
:103490009FFE607A50B92068FDF78BF8871C3A468A
:1034A00015A10020236800F08FFB09E02068FDF7DC
:1034B00080F8871C3A4618A10020236800F084FB9E
:1034C0000020C4F82C01012084F82901607A401CF6
:1034D0006072194890F900009DF90010884203D0ED
:1034E0009DF9000014490870F8BD0000081C002078
:1034F0001C0000200D0A000053656E64204154201A
:10350000436D64204279205461736B5B25645D3A9E
:103510002025730D0A000000526553656E6420413A
:103520005420436D64204279205461736B5B2564A1
:103530005D3A2025730D0A00A002002010B500F0AE
:1035400001F810BD0CB500200190009033480068D0
:1035500040F480303149086000BF3048006800F412
:10356000003000900198401C0190009818B9019813
:10357000B0F5A06FF1D12948006800F4003010B117
:103580000120009001E0002000900098012843D124
:103590002348006840F01000214908600846006890
:1035A00020F0030008600846006840F00200086050
:1035B0001A4840681949486008464068486008460B
:1035C000406840F4806048600846406820F47C1001
:1035D00048600846406840F4E810486008460068C3
:1035E00040F08070086000BF0C48006800F0007078
:1035F0000028F9D00948406820F0030007494860D6
:103600000846406840F00200486000BF0348406838
:1036100000F00C000828F9D10CBD00000010024099
:103620000020024080F80C187047002180F80C1828
:103630007047704710B51348006840F00100114909
:10364000086008464068104908400E49486008462E
:1036500000680E4908400B4908600846006820F4DD
:10366000802008600846406820F4FE0048604FF45F
:103670001F008860FFF762FF4FF000600449086098
:1036800010BD0000001002400000FFF8FFFFF6FE32
:1036900008ED00E010B50121524800F0E8F80028DC
:1036A0007AD001214F4800F0D3F800242FE004EB3A
:1036B00044014D4800EB81004068401C04EB44028B
:1036C000494901EB8201486004EB4401464800EBA4
:1036D000810004EB44024168434800EB82008068AB
:1036E000814212D3002104EB44023F4800EB8200E8
:1036F000416004EB44013C4850F8210028B104EB40
:103700004402394951F822008047601CC4B236484F
:10371000001F0088A04201DD0A2CC8DB3248001FD0
:10372000D0F88000401C3049091FC1F880000846CD
:10373000C06F401CC8670020804203D101202B4984
:10374000087000E000BF2848001FC06F0A21B0FBCE
:10375000F1F201FB120018B901202449487000E081
:1037600000BF2148001FC06F1421B0FBF1F201FB24
:10377000120018B901201D49887000E000BF1A48E6
:10378000001FC06F6421B0FBF1F201FB120020B9F1
:1037900001201649C87001E022E000BF1248001F56
:1037A000C06F4FF4FA71B0FBF1F201FB120018B9CF
:1037B00001200E49087100E000BF0B48001FC06FD8
:1037C0004FF47A71B0FBF1F201FB120038B901201D
:1037D0000649487100200449091FC86700E000BF7E
:1037E00010BD000000040040F41E0020A1020020D3
:1037F0007FB505460C4601210220FFF7EBFCADF832
:103800000850ADF804400020ADF80A00ADF80600FD
:1038100001A90E4800F046F8012211460B4800F0BD
:1038200037F81D208DF8000000208DF801000320DE
:103830008DF8020001208DF803006846FEF7AAFE0D
:103840000121024800F007F87FBD0000000400409D
:10385000CA430282704721B1028842F0010202800D
:1038600004E002884FF6FE731A400280704730B5BC
:103870000246002000230024158A05EA01039589E9
:1038800005EA010413B10CB1012000E0002030BDB5
:103890001AB183890B43838102E083898B4383813F
:1038A00070470000002202881D4B98420ED01D4B2D
:1038B00098420BD0B0F1804F08D01B4B984205D0F6
:1038C0001A4B984202D01A4B984204D14FF68F738C
:1038D0001A404B881A43174B984207D0164B984210
:1038E00004D04FF6FF431A40CB881A4302808B88DE
:1038F00083850B8803850A4B98420BD0094B98426D
:1039000008D00E4B984205D00D4B984202D00D4B7B
:10391000984201D10B7A038601238382704700000D
:10392000002C014000340140000400400008004029
:10393000000C004000100040001400400040014016
:10394000004401400048014010B50821114800F032
:1039500073F830B10F4800F071F908210D4800F0FC
:1039600047F840F225510B4800F073F880B1202150
:10397000084800F03DF840F22551064800F041F8B3
:10398000044800F05BF9C4B221460348FFF724FD68
:1039900010BD000000380140AC0A002010B508211D
:1039A000114800F049F830B10F4800F047F90821FC
:1039B0000D4800F01DF840F225510B4800F049F881
:1039C00080B12021084800F013F840F22551064844
:1039D00000F017F8044800F031F9C4B2214603485A
:1039E000FFF7FAFC10BD000000480040C0120020A4
:1039F00001F40072B2F5007F00D100BFCA4302801B
:103A0000704710B50022002340F66A14A14200D18D
:103A100000BF0A1201249440A3B2DC43048010BD0D
:103A200021B1828942F40052828104E082894DF6FC
:103A3000FF731A408281704702460020B1F5007F73
:103A400000D100BF13880B400BB1012000E0002023
:103A5000704770B50246002400230025002040F680
:103A60006A16B14200D100BFC1F3421501F01F0335
:103A7000012606FA03F3012D02D19689334006E0B0
:103A8000022D02D1168A334001E0968A33400C128F
:103A9000012606FA04F41688344013B10CB1012053
:103AA00000E0002070BDF0B503460024002600258C
:103AB000002040F66A17B94200D100BF1846C1F392
:103AC000421401F01F06012707FA06F5012C01D167
:103AD0000C3004E0022C01D1103000E014301AB197
:103AE00007682F43076002E00768AF430760F0BD37
:103AF0002DE9F04786B005460E460024A24600BFD9
:103B0000A1460027B08900B100BF2F462C8A4CF691
:103B1000FF700440F08804432C82AC894EF6F31009
:103B20000440B08831890843718908430443AC815B
:103B3000AC8A4FF6FF400440B0890443AC8201A830
:103B4000FFF778FB1F48874202D1DDF810A001E0A3
:103B5000DDF80CA0A88900F4004040B10AEBCA00CF
:103B600000EB0A1031684900B0FBF1F807E00AEBFE
:103B7000CA0000EB0A1031688900B0FBF1F864203C
:103B8000B8FBF0F004012009642101FB1089A88929
:103B900000F4004040B1322000EBC900B0FBF1F06E
:103BA00000F00700044308E0322000EB0910642114
:103BB000B0FBF1F000F00F0004432C8106B0BDE82B
:103BC000F0870000003801400FB438B5044606A85D
:103BD000009004EB840101EB4421174A02EB8100C1
:103BE0004FF40061FCF79DFD04EB840101EB4421DF
:103BF000114A02EB81004FF40061009B059AFCF72B
:103C000059FB0020009004EB840101EB44210A4A97
:103C100002EB8100FCF7CDFC054604EB840000EBD1
:103C20004420054A02EB80012A462046FEF7D0FADE
:103C300038BC5DF814FB0000AC0A002001468888FF
:103C4000C0F30800704700BFFEE7000010B586B063
:103C50000446012144F20400FFF7DCFA4FF400703F
:103C6000ADF8140003208DF8160018208DF8170009
:103C700005A91C48FEF7FEFA4FF48060ADF8140069
:103C800004208DF8170005A91648FEF7F3FA252041
:103C90008DF8000003208DF801008DF8020001204E
:103CA0008DF803006846FEF775FC01940020ADF81E
:103CB0000800ADF80A00ADF80C00ADF810000C20BB
:103CC000ADF80E0001A90848FFF712FF012240F2EB
:103CD00025510548FFF7E7FE01210348FFF7A0FE45
:103CE00006B010BD000801400038014010B586B094
:103CF000044601218804FFF76DFA01210820FFF72F
:103D000089FA4FF48060ADF8140003208DF8160096
:103D100018208DF8170005A92148FEF7ABFA4FF4DB
:103D20000060ADF8140004208DF8170005A91C48A8
:103D3000FEF7A0FA01218804FFF75CFA00214FF496
:103D40008020FFF757FA27208DF8000003208DF818
:103D5000010005208DF8020001208DF8030068465F
:103D6000FEF718FC01940020ADF80800ADF80A0039
:103D7000ADF80C00ADF810000C20ADF80E0001A954
:103D80000848FFF7B5FE012240F225510548FFF72C
:103D90008AFE01210348FFF743FE06B010BD000074
:103DA000000C014000480040490050EAC12018BF03
:103DB00004204A0D18BF40F0010040F2FF72B2EB40
:103DC000515F08BF40F00200012808BF052070477E
:103DD00030380A2801D201207047002070470000C7
:103DE000FEF718F9FEF7E6F801211B48FEF7F0F898
:103DF0001A490120FEF7C4F9FDF7ECFFFDF77CFF3F
:103E000029E01748007810B10020154908701448BF
:103E1000407820B1FEF73AF8002011494870104868
:103E2000807820B1FEF74AF900200D4988700C48CF
:103E3000C07810B100200A49C8700948007910B153
:103E40000020074908710648407920B1FDF762FF5C
:103E5000002003494871D4E74D200008051E0008E2
:103E6000A102002010B500290AD00878002807D048
:103E700005487844FDF794FA002801D0002010BDD1
:103E80000248784410BD0000760200006E02000077
:103E900010B500290AD00878002807D005487844D2
:103EA000FDF77EFA002801D0002010BD02487844BA
:103EB00010BD00005A03000052030000FCF7C2BF0F
:103EC00054400008584000080400000800000000AA
:103ED00000000002000100001000000000000000CF
:103EE0000000000030313233343536373839414242
:103EF000434445464030580030313233343536374C
:103F000038396162636465664030780002400000C1
:103F1000000000A00000000005400000000000C8F4
:103F2000000000000C4000000000409C0000000069
:103F3000194000000020BCBE00000000344000001A
:103F4000BFC91B8E00000004B5400000504BCFD00D
:103F50006607E2CF010000006C4100003E8251AADA
:103F6000DFEEA73401000000D9420000DCB5A0E27A
:103F70003A301F97FFFFFFFFB4450000FD25A0C8A2
:103F8000E9A3C14FFFFFFFFFFF3F000000000080DB
:103F900000000000FF3F0000000000800000000063
:103FA000415445300000000041542B4357415554C3
:103FB0004F434F4E4E3D310041542B4357535441D4
:103FC0005254534D4152543D330000003E00000016
:103FD00041542B43495053454E44000041542B4318
:103FE00049504D4F4445000041542B43574D4F44D9
:103FF0004500000041542B434950434C4F5345006A
:1040000041542B43574C49460000000053454E4451
:10401000204F4B004F4B000041542B434950535409
:104020004F00000041542B43574A4150000000000C
:1040300041542B43574C41500000000041542B4346
:10404000575141500000000041542B4357534150F9
:1040500000000000544350005544500041542B438D
:1040600049505345525645520000000041542B47D9
:104070004D52000041542B4349465352000000006A
:1040800041542B43495053544154555300000000B0
:104090004154000041542B435753544F50534D410A
:1040A0005254000041542B43495053544152540040
:1040B00041542B525354000041542B4349504D5509
:1040C000580000000000000014420008000000201A
:1040D000A802000028010008FC420008A8020020F5
:1040E0003029000084010008100100004300000096
:1040F000F8FFFFFF00404040404040404040414109
:1041000041414140404040404040404040404040AC
:104110004040404040050202020202020202020246
:104120000202020202202020202020202020200243
:1041300002020202020290909090909010101010D3
:10414000101010101010101010101010101010106F
:104150000202020202028888888888880808080803
:1041600008080808080808080808080808080808CF
:1041700002020202400000000000000000000000F7
:10418000000000000000000000000000000000002F
:10419000000000000000000000000000000000001F
:1041A000000000000000000000000000000000000F
:1041B00000000000000000000000000000000000FF
:1041C00000000000000000000000000000000000EF
:1041D00000000000000000000000000000000000DF
:1041E00000000000000000000000000000000000CF
:1041F00000000000000000001C0000004300000060
:10420000F8FFFFFF0C0000000E0000000F00000090
:104210002E000000912D0102030404300906070856
:1042200009020406081390401B0814043232F26499
:104230005AB01C41E3D0070A196C1C4BA03F1C323A
:104240000263F4014BD12A2C5AE81C291723E803F6
:104250004B552718415A24541917112310278B192D
:10426000281C9A3070E388135A3C1C2954697081C9
:10427000DA481C9A8554110919380A11801C4BF12F
:104280002C3C9AA41C23DC051379264C08492B1CD2
:104290001AD0E01ACC0439EC19C913A5294C082905
:1042A0002E101AC4345A0CC423B80B1A991C4B1183
:1042B0002F101AF434A9708B9927A80A1974A89A98
:1042C000B81C23D0071A55544B712D3CDA5C1C9A4C
:1042D000C554DADC701A113881DA18708BE5281CA5
:1042E0005AA83869E0B98C09111C4B9D2B105A94BF
:0C42F00054A91C4B112C1072FF000000A0
:04000005080000ED02
:00000001FF
